:100000001EC042C041C040C03FC01DC13DC03CC039
:100010003BC03AC039C038C037C036C035C0000018
:10002000000038000000000037000000000036002B
:1000300002020202020201020408102068021124D6
:100040001FBECFE5D2E0DEBFCDBF10E0A0E6B0E03E
:10005000EEEEF4E002C005900D92A236B107D9F79A
:1000600020E0A2E6B0E001C01D92A237B207E1F79E
:1000700010E0CFE1D0E003C02197FE0130D2CE31B5
:10008000D107D1F72AD131C2BBCF3FB7F8948091C5
:100090006A0090916B00A0916C00B0916D0022B746
:1000A00008B601FE05C02F3F19F00196A11DB11D34
:1000B0003FBFBA2FA92F982F8827BC01CD01620F0F
:1000C000711D811D911D43E0660F771F881F991FC9
:1000D0004A95D1F70895CF92DF92EF92FF92CF9396
:1000E000DF936B017C01D1DFEB01CFDF6C1B7D0B5C
:1000F000683E7340A0F0C114D104E104F10439F466
:10010000DF91CF91FF90EF90DF90CF90089581E045
:10011000C81AD108E108F108C851DC4FE6CFC11474
:10012000D104E104F10409F7EBCF4F925F926F9293
:100130007F928F929F92AF92BF92CF92DF92EF9277
:10014000FF920F931F93CF93DF936C019EDF2B01E0
:100150005C014B01CCE0D0E0F12CE12C8EE0C81A20
:10016000D108E108F108F894C19ACE010197F1F79E
:10017000C19878948AE1880E911CA11CB11C85DF7E
:100180009B0124193509890130E020E00C151D057B
:100190002E053F0534F4681579058A059B0578F32B
:1001A000E2CFDF91CF911F910F91FF90EF90DF9001
:1001B000CF90BF90AF909F908F907F906F905F9007
:1001C0004F900895AF92BF92CF92DF92EF92FF923D
:1001D0000F931F93CF935C018B01B99A8FB7F8945B
:1001E00040916E0050916F006091700070917100AD
:1001F0008FBF80E093E299DF8CEF92E20197F1F7F5
:1002000065017801C0E20CE11DE09CE5A92E94E0B7
:10021000B92E80E392E089DFC801C0FEC5010197D5
:10022000F1F7F694E794D794C794C15091F780E31F
:1002300092E0CF911F910F91FF90EF90DF90CF90C0
:10024000BF90AF9072CF1F920F920FB60F921124F2
:100250002F933F938F939F93AF93BF9380916E00A3
:1002600090916F00A0917000B09171003091690081
:1002700026E0230F2D3768F129E8230F0396A11DEF
:10028000B11D2093690080936E0090936F00A0933E
:100290007000B093710080916A0090916B00A09102
:1002A0006C00B0916D000196A11DB11D80936A0094
:1002B00090936B00A0936C00B0936D00BF91AF91D1
:1002C0009F918F913F912F910F900FBE0F901F9094
:1002D00018950296A11DB11DD4CF83E08ABD83BFBE
:1002E000789489B7826089BF80E48CBD8FEF8DBD23
:1002F00087EC80BF86E886B98091620087FF0DC0D9
:100300008F7709F4B2C0813009F4B1C0823009F4AA
:10031000B0C0833009F4AFC08FEF90E0FC01EA5C1D
:10032000FF4F2491805D9F4FFC0184918823C1F091
:1003300090E0880F991FFC01EC5DFF4FC591D491AF
:10034000FC01E25EFF4FA591B4919FB7F89438810C
:10035000822F809583238883EC91E22BEC939FBFBF
:10036000C1E08091620087FF0DC08F7709F485C0DE
:10037000813009F484C0823009F483C0833009F4E9
:1003800082C08FEF90E0FC01EA5CFF4F2491FC01FA
:10039000E05DFF4FE491EE2359F0F0E0EE0FFF1F18
:1003A000E65DFF4FA591B491EC91E22381E009F461
:1003B00080E090916400891709F467C09FB7F894B2
:1003C00040916E0050916F006091700070917100CB
:1003D0009FBF4093650050936600609367007093E1
:1003E0006800809364008091630081116EC08091E9
:1003F00060008823B9F163E470E085E290E0E2DE1A
:100400006AEF70E080E090E066DE60E570E088E72B
:1004100090E0D8DE6AEF70E080E090E05CDE67E6B6
:1004200078E48DE69DE6CEDE6AEF70E080E090E055
:1004300052DE69EF70E089EB90E0C4DE6AEF70E0B5
:1004400080E090E048DE6EE770E084E690E0BADE9F
:100450006AEF70E080E090E03EDE6CE674E487E6F0
:100460009DE6B0DE109260007CCF85E056CF82E042
:1004700054CF84E052CF83E050CF85E083CF82E039
:1004800081CF84E07FCF83E07DCF9FB7F894409108
:100490006E0050916F0060917000709171009FBF6D
:1004A000009165001091660020916700309168000E
:1004B000401B510B620B730B4233510561057105F3
:1004C00008F48FCF809363008CCFC093600049CF36
:1004D000E2E6F0E0108281E0818382830895EE0FEE
:0E04E000FF1F0590F491E02D0994F894FFCFD2
:0204EE0001000B
:00000001FF
